:100000000EC020C01FC01EC01DC01CC01BC01AC017
:1000100019C018C017C016C015C014C013C01124D1
:100020001FBECFE5D2E0DEBFCDBF10E0A0E6B0E05E
:10003000E8EDF0E002C005900D92AC39B107D9F7B8
:1000400031D048C0DDCFBB9A0895C398E0E4F3E017
:100050003197F1F7000020E030E0082E000C990BFA
:10006000AC01022E02C0559547950A94E2F740FF75
:1000700002C0C39A01C0C398E0E4F3E03197F1F7FE
:1000800000002F5F3F4F2830310551F7C39A80E4BD
:1000900093E00197F1F70000E0E4F3E03197F1F726
:1000A00000000895D0DFC0E6D0E08991882341F0B8
:1000B000CCDF87EA91E60197F1F700C00000F5CFA9
:1000C0009FE32DE083E0915020408040E1F700C0A5
:0800D0000000E9CFF894FFCF16
:1000D800426F6E6A6F7572206D6F69206327657352
:1000E800742068696368616D2C2072617669206488
:1000F8006520666169726520766F74726520636F2A
:0C0108006E6E61697373616E63652000A8
:00000001FF
